:1000000012C07DC118C017C016C015C014C013C0DF
:1000100012C011C010C00FC00EC00DC00CC00BC06C
:100020000AC009C008C011241FBECFE5D4E0DEBF5E
:10003000CDBF7CD17FC4E4CFFF920F931F93CF93AA
:10004000DF938C01C0E0D0E087E090E0FE01F69500
:10005000E795F695E795F695E795DE01A770BB273E
:1000600027E030E040E0E00FF11FF42EFF0CA21774
:10007000B307E9F04081BC01621B730B062E01C07F
:10008000440F0A94EAF747FB552750F9452F4F29AB
:100090002150310950F740832196C11521E0D20744
:1000A000A9F6DF91CF911F910F91FF90089550E035
:1000B000EDCF2F923F924F925F926F927F928F92ED
:1000C0009F92AF92BF92CF92DF92EF92FF920F93E7
:1000D0001F93CF93DF937C0180E090E0ABD29B0134
:1000E000AC0160E070E08FE793E410D2562E472E0B
:1000F000382E292EB62EC72ED82EA92E812C912C23
:10010000612CC7E0D0E084010F5F1F4FB80180E091
:1001100090E090D22B2D3C2D4D2D5A2D19D387FDDB
:1001200045C0C4018170992721E08227382F3170A2
:10013000732EF401F695E795F695E795F695E79514
:1001400087E088229924631609F46DC027E030E027
:1001500040E0EE0DFF1D642F660F8216930609F432
:1001600080C04081CE01821B930B082E01C0440F3A
:100170000A94EAF747FB442740F9462B21503109FE
:1001800050F74083252D342D432D522D6B2D7C2D82
:100190008D2D9A2D57D1B62EC72ED82EA92E672C6D
:1001A000011521E0120761F14801ADCFF401F69588
:1001B000E795F695E795F695E79527E0822299244D
:1001C00027E030E040E0EE0DFF1D642F660F821641
:1001D000930609F444C04081CE01821B930B01C0F9
:1001E000440F8A95EAF747FB882780F9482F462B6A
:1001F0002150310950F74083011521E01207A1F683
:10020000DF91CF911F910F91FF90EF90DF90CF90F2
:10021000BF90AF909F908F907F906F905F904F9026
:100220003F902F90089587E090E020E0EE0DFF1DB5
:10023000622F660F88169906B1F02081AE01481B27
:10024000590B042E01C0220F0A94EAF727FB33272B
:1002500030F9232F262B019758F72083A1CF80E078
:10026000C5CF41E08ACF30E0F4CF6F3F710509F090
:10027000A0F4FB01F695E795F695E795F695E795D9
:10028000E80FF91F808190E06770772702C095958D
:1002900087956A95E2F78170089580E008951F932D
:1002A000CF93DF93EB01D695C795D695C795D69595
:1002B000C7956770772727E030E0E0E0C80FD91FC7
:1002C00087E090E01E2F110F26173707B1F0E88165
:1002D000DC01A21BB30B0A2E01C0EE0F0A94EAF751
:1002E000E7FB552750F9E52FE12B2150310950F755
:1002F000E883DF91CF911F910895542FF4CF1F927F
:100300000F920FB60F9211248F93829B07C012BADF
:100310008F910F900FBE0F901F90189582E082BBB7
:100320008F910F900FBE0F901F901895CF93DF9372
:10033000CDB7DEB7C054D1090FB6F894DEBF0FBEFB
:10034000CDBFCE01819678DE82E087BB81BB7894F9
:100350008BB780648BBF81E085BF1BB880E18AB911
:1003600086E880BD10BC8CE089B981E287B985EE52
:1003700086B9C12CD12CEE24EA94F12C00E010E0D7
:1003800080E2B82E92E0A92E5F9940C065B170E07E
:1003900080E090E051D120E030E040E85EE3DCD145
:1003A0003ED220E030E040E850E4D6D158D216D119
:1003B00062337105D0F506171707C8F5E016F10688
:1003C000B0F12FEFC216D104A8F53FEFC31AD30A3C
:1003D000F601F695E795F695E795F695E795A6016A
:1003E0004770552721E230E02C0F3D1FE20FF31F2D
:1003F000208130E002C0359527954A95E2F720FF2D
:1004000016C0A8BA78018B015F9BC0CF6CB170E0B9
:10041000CE0101964EDEFE013196DE0191968B2DC6
:1004200001900D928A95E1F7B1CF18BAADCF78015E
:100430008B01AACF40E050E0E0E0F0E0C12CD12CED
:10044000D1CF5058BB27AA270ED048C139D130F0A0
:100450003ED120F031F49F3F11F41EF42EC10EF472
:10046000E095E7FB24C1E92F4AD180F3BA17620770
:1004700073078407950718F071F49EF562C10EF4B6
:10048000E0950B2EBA2FA02D0B01B90190010C01A4
:10049000CA01A0011124FF27591B99F0593F50F4BC
:1004A000503E68F11A16F040A22F232F342F442714
:1004B000585FF3CF469537952795A795F04053950C
:1004C000C9F77EF41F16BA0B620B730B840BBAF0DC
:1004D0009150A1F0FF0FBB1F661F771F881FC2F747
:1004E0000EC0BA0F621F731F841F48F4879577955B
:1004F0006795B795F7959E3F08F0B3CF9395880F12
:1005000008F09927EE0F9795879508950CD0E6C0CF
:10051000DED040F0D5D030F021F45F3F19F0C7C0F5
:10052000511110C1CAC0EBD098F39923C9F35523D8
:10053000B1F3951B550BBB27AA27621773078407D6
:1005400038F09F5F5F4F220F331F441FAA1FA9F38C
:1005500033D00E2E3AF0E0E830D091505040E6957E
:10056000001CCAF729D0FE2F27D0660F771F881FDF
:10057000BB1F261737074807AB07B0E809F0BB0BCE
:10058000802DBF01FF2793585F4F2AF09E3F5105F2
:1005900068F08DC0D7C05F3FECF3983EDCF38695E2
:1005A00077956795B795F7959F5FC9F7880F911D68
:1005B0009695879597F90895E1E0660F771F881F54
:1005C000BB1F621773078407BA0720F0621B730B07
:1005D000840BBA0BEE1F88F7E095089598D088F049
:1005E0009F5790F0B92F9927B751A0F0D1F0660F1F
:1005F000771F881F991F1AF0BA95C9F712C0B1303A
:1006000081F09FD0B1E008959CC0672F782F882794
:10061000B85F39F0B93FCCF3869577956795B39578
:10062000D9F73EF490958095709561957F4F8F4FE7
:100630009F4F0895E89409C097FB3EF490958095EC
:10064000709561957F4F8F4F9F4F9923A9F0F92F98
:1006500096E9BB279395F695879577956795B79516
:10066000F111F8CFFAF4BB0F11F460FF1BC06F5FFC
:100670007F4F8F4F9F4F16C0882311F096E911C00E
:10068000772321F09EE8872F762F05C0662371F02F
:1006900096E8862F70E060E02AF09A95660F771F43
:1006A000881FDAF7880F9695879597F9089597F937
:1006B0009F6780E870E060E008959FEF80EC089508
:1006C00000240A9416161706180609060895002431
:1006D0000A9412161306140605060895092E0394AB
:1006E000000C11F4882352F0BB0F40F4BF2B11F41F
:1006F00060FF04C06F5F7F4F8F4F9F4F089557FD7E
:100700009058440F551F59F05F3F71F04795880F7F
:1007100097FB991F61F09F3F79F087950895121616
:1007200013061406551FF2CF4695F1DF08C01616C2
:1007300017061806991FF1CF869571056105089473
:100740000895E894BB2766277727CB0197F908958A
:100750008DD008F48FEF08950BD0C0CFB1DF28F013
:10076000B6DF18F0952309F0A2CFA7CF1124EACF66
:10077000C6DFA0F3959FD1F3950F50E0551F629F00
:10078000F001729FBB27F00DB11D639FAA27F00DEA
:10079000B11DAA1F649F6627B00DA11D661F829F11
:1007A0002227B00DA11D621F739FB00DA11D621FF6
:1007B000839FA00D611D221F749F3327A00D611D13
:1007C000231F849F600D211D822F762F6A2F1124F5
:1007D0009F5750408AF0E1F088234AF0EE0FFF1F48
:1007E000BB1F661F771F881F91505040A9F79E3F7F
:1007F000510570F05CCFA6CF5F3FECF3983EDCF381
:10080000869577956795B795F795E7959F5FC1F7BB
:10081000FE2B880F911D9695879597F9089577DFA0
:10082000E0F09E37D8F09639B8F49E3848F4672F38
:10083000782F8827985FF9CF869577956795939558
:100840009539D0F3B62FB1706B0F711D811D20F457
:1008500087957795679593952DC047C073CF53D0F3
:1008600020F09F3708F46ECF25C03FC0990F0008D5
:10087000550FAA0BE0E8FEEF16161706E807F90772
:10088000C0F012161306E407F50798F0621B730B0D
:10089000840B950B39F40A2661F0232B242B252B8E
:1008A00021F408950A2609F4A140A6958FEF811D31
:1008B000811D0895882371F4772321F09850872BA8
:1008C000762F07C0662311F499270DC09051862B0F
:1008D00070E060E02AF09A95660F771F881FDAF7BC
:1008E000880F9695879597F908959F3F31F091501D
:1008F00020F4879577956795B795880F911D969504
:10090000879597F9089503DFA0F0BEE7B91788F43B
:10091000BB279F3860F41616B11D672F782F8827E4
:10092000985FF7CF869577956795B11D9395963922
:08093000C8F30895F894FFCF0D
:00000001FF
